{
  "contractName": "SkyNFTS",
  "abi": [
    {
      "inputs": [],
      "stateMutability": "nonpayable",
      "type": "constructor"
    },
    {
      "anonymous": false,
      "inputs": [
        {
          "indexed": true,
          "internalType": "address",
          "name": "owner",
          "type": "address"
        },
        {
          "indexed": true,
          "internalType": "address",
          "name": "approved",
          "type": "address"
        },
        {
          "indexed": true,
          "internalType": "uint256",
          "name": "tokenId",
          "type": "uint256"
        }
      ],
      "name": "Approval",
      "type": "event"
    },
    {
      "anonymous": false,
      "inputs": [
        {
          "indexed": true,
          "internalType": "address",
          "name": "owner",
          "type": "address"
        },
        {
          "indexed": true,
          "internalType": "address",
          "name": "operator",
          "type": "address"
        },
        {
          "indexed": false,
          "internalType": "bool",
          "name": "approved",
          "type": "bool"
        }
      ],
      "name": "ApprovalForAll",
      "type": "event"
    },
    {
      "anonymous": false,
      "inputs": [
        {
          "indexed": true,
          "internalType": "address",
          "name": "owner",
          "type": "address"
        },
        {
          "indexed": false,
          "internalType": "uint256",
          "name": "tokenId",
          "type": "uint256"
        },
        {
          "indexed": false,
          "internalType": "string",
          "name": "tokenURI",
          "type": "string"
        }
      ],
      "name": "Minted",
      "type": "event"
    },
    {
      "anonymous": false,
      "inputs": [
        {
          "indexed": true,
          "internalType": "address",
          "name": "owner",
          "type": "address"
        },
        {
          "indexed": false,
          "internalType": "uint256",
          "name": "tokenId",
          "type": "uint256"
        },
        {
          "indexed": false,
          "internalType": "bool",
          "name": "isListed",
          "type": "bool"
        }
      ],
      "name": "NftListStatus",
      "type": "event"
    },
    {
      "anonymous": false,
      "inputs": [
        {
          "indexed": true,
          "internalType": "address",
          "name": "previousOwner",
          "type": "address"
        },
        {
          "indexed": true,
          "internalType": "address",
          "name": "newOwner",
          "type": "address"
        }
      ],
      "name": "OwnershipTransferred",
      "type": "event"
    },
    {
      "anonymous": false,
      "inputs": [
        {
          "indexed": true,
          "internalType": "address",
          "name": "owner",
          "type": "address"
        },
        {
          "indexed": false,
          "internalType": "uint256",
          "name": "oldPrice",
          "type": "uint256"
        },
        {
          "indexed": false,
          "internalType": "uint256",
          "name": "newPrice",
          "type": "uint256"
        },
        {
          "indexed": false,
          "internalType": "uint256",
          "name": "tokenId",
          "type": "uint256"
        }
      ],
      "name": "PriceUpdate",
      "type": "event"
    },
    {
      "anonymous": false,
      "inputs": [
        {
          "indexed": true,
          "internalType": "address",
          "name": "previousOwner",
          "type": "address"
        },
        {
          "indexed": true,
          "internalType": "address",
          "name": "newOwner",
          "type": "address"
        },
        {
          "indexed": false,
          "internalType": "uint256",
          "name": "price",
          "type": "uint256"
        },
        {
          "indexed": false,
          "internalType": "uint256",
          "name": "tokenId",
          "type": "uint256"
        },
        {
          "indexed": false,
          "internalType": "string",
          "name": "uri",
          "type": "string"
        }
      ],
      "name": "Purchased",
      "type": "event"
    },
    {
      "anonymous": false,
      "inputs": [
        {
          "indexed": true,
          "internalType": "address",
          "name": "from",
          "type": "address"
        },
        {
          "indexed": true,
          "internalType": "address",
          "name": "to",
          "type": "address"
        },
        {
          "indexed": true,
          "internalType": "uint256",
          "name": "tokenId",
          "type": "uint256"
        }
      ],
      "name": "Transfer",
      "type": "event"
    },
    {
      "inputs": [
        {
          "internalType": "address",
          "name": "to",
          "type": "address"
        },
        {
          "internalType": "uint256",
          "name": "tokenId",
          "type": "uint256"
        }
      ],
      "name": "approve",
      "outputs": [],
      "stateMutability": "nonpayable",
      "type": "function"
    },
    {
      "inputs": [
        {
          "internalType": "address",
          "name": "owner",
          "type": "address"
        }
      ],
      "name": "balanceOf",
      "outputs": [
        {
          "internalType": "uint256",
          "name": "",
          "type": "uint256"
        }
      ],
      "stateMutability": "view",
      "type": "function",
      "constant": true
    },
    {
      "inputs": [],
      "name": "baseURI",
      "outputs": [
        {
          "internalType": "string",
          "name": "",
          "type": "string"
        }
      ],
      "stateMutability": "view",
      "type": "function",
      "constant": true
    },
    {
      "inputs": [
        {
          "internalType": "uint256",
          "name": "tokenId",
          "type": "uint256"
        }
      ],
      "name": "getApproved",
      "outputs": [
        {
          "internalType": "address",
          "name": "",
          "type": "address"
        }
      ],
      "stateMutability": "view",
      "type": "function",
      "constant": true
    },
    {
      "inputs": [
        {
          "internalType": "address",
          "name": "owner",
          "type": "address"
        },
        {
          "internalType": "address",
          "name": "operator",
          "type": "address"
        }
      ],
      "name": "isApprovedForAll",
      "outputs": [
        {
          "internalType": "bool",
          "name": "",
          "type": "bool"
        }
      ],
      "stateMutability": "view",
      "type": "function",
      "constant": true
    },
    {
      "inputs": [
        {
          "internalType": "uint256",
          "name": "",
          "type": "uint256"
        }
      ],
      "name": "listedTokens",
      "outputs": [
        {
          "internalType": "bool",
          "name": "",
          "type": "bool"
        }
      ],
      "stateMutability": "view",
      "type": "function",
      "constant": true
    },
    {
      "inputs": [],
      "name": "name",
      "outputs": [
        {
          "internalType": "string",
          "name": "",
          "type": "string"
        }
      ],
      "stateMutability": "view",
      "type": "function",
      "constant": true
    },
    {
      "inputs": [],
      "name": "owner",
      "outputs": [
        {
          "internalType": "address",
          "name": "",
          "type": "address"
        }
      ],
      "stateMutability": "view",
      "type": "function",
      "constant": true
    },
    {
      "inputs": [
        {
          "internalType": "uint256",
          "name": "tokenId",
          "type": "uint256"
        }
      ],
      "name": "ownerOf",
      "outputs": [
        {
          "internalType": "address",
          "name": "",
          "type": "address"
        }
      ],
      "stateMutability": "view",
      "type": "function",
      "constant": true
    },
    {
      "inputs": [
        {
          "internalType": "uint256",
          "name": "",
          "type": "uint256"
        }
      ],
      "name": "price",
      "outputs": [
        {
          "internalType": "uint256",
          "name": "",
          "type": "uint256"
        }
      ],
      "stateMutability": "view",
      "type": "function",
      "constant": true
    },
    {
      "inputs": [],
      "name": "renounceOwnership",
      "outputs": [],
      "stateMutability": "nonpayable",
      "type": "function"
    },
    {
      "inputs": [
        {
          "internalType": "address",
          "name": "from",
          "type": "address"
        },
        {
          "internalType": "address",
          "name": "to",
          "type": "address"
        },
        {
          "internalType": "uint256",
          "name": "tokenId",
          "type": "uint256"
        }
      ],
      "name": "safeTransferFrom",
      "outputs": [],
      "stateMutability": "nonpayable",
      "type": "function"
    },
    {
      "inputs": [
        {
          "internalType": "address",
          "name": "from",
          "type": "address"
        },
        {
          "internalType": "address",
          "name": "to",
          "type": "address"
        },
        {
          "internalType": "uint256",
          "name": "tokenId",
          "type": "uint256"
        },
        {
          "internalType": "bytes",
          "name": "_data",
          "type": "bytes"
        }
      ],
      "name": "safeTransferFrom",
      "outputs": [],
      "stateMutability": "nonpayable",
      "type": "function"
    },
    {
      "inputs": [
        {
          "internalType": "address",
          "name": "operator",
          "type": "address"
        },
        {
          "internalType": "bool",
          "name": "approved",
          "type": "bool"
        }
      ],
      "name": "setApprovalForAll",
      "outputs": [],
      "stateMutability": "nonpayable",
      "type": "function"
    },
    {
      "inputs": [
        {
          "internalType": "bytes4",
          "name": "interfaceId",
          "type": "bytes4"
        }
      ],
      "name": "supportsInterface",
      "outputs": [
        {
          "internalType": "bool",
          "name": "",
          "type": "bool"
        }
      ],
      "stateMutability": "view",
      "type": "function",
      "constant": true
    },
    {
      "inputs": [],
      "name": "symbol",
      "outputs": [
        {
          "internalType": "string",
          "name": "",
          "type": "string"
        }
      ],
      "stateMutability": "view",
      "type": "function",
      "constant": true
    },
    {
      "inputs": [
        {
          "internalType": "uint256",
          "name": "index",
          "type": "uint256"
        }
      ],
      "name": "tokenByIndex",
      "outputs": [
        {
          "internalType": "uint256",
          "name": "",
          "type": "uint256"
        }
      ],
      "stateMutability": "view",
      "type": "function",
      "constant": true
    },
    {
      "inputs": [
        {
          "internalType": "uint256",
          "name": "",
          "type": "uint256"
        }
      ],
      "name": "tokenCreator",
      "outputs": [
        {
          "internalType": "address",
          "name": "",
          "type": "address"
        }
      ],
      "stateMutability": "view",
      "type": "function",
      "constant": true
    },
    {
      "inputs": [
        {
          "internalType": "address",
          "name": "owner",
          "type": "address"
        },
        {
          "internalType": "uint256",
          "name": "index",
          "type": "uint256"
        }
      ],
      "name": "tokenOfOwnerByIndex",
      "outputs": [
        {
          "internalType": "uint256",
          "name": "",
          "type": "uint256"
        }
      ],
      "stateMutability": "view",
      "type": "function",
      "constant": true
    },
    {
      "inputs": [
        {
          "internalType": "uint256",
          "name": "tokenId",
          "type": "uint256"
        }
      ],
      "name": "tokenURI",
      "outputs": [
        {
          "internalType": "string",
          "name": "",
          "type": "string"
        }
      ],
      "stateMutability": "view",
      "type": "function",
      "constant": true
    },
    {
      "inputs": [],
      "name": "totalSupply",
      "outputs": [
        {
          "internalType": "uint256",
          "name": "",
          "type": "uint256"
        }
      ],
      "stateMutability": "view",
      "type": "function",
      "constant": true
    },
    {
      "inputs": [
        {
          "internalType": "address",
          "name": "from",
          "type": "address"
        },
        {
          "internalType": "address",
          "name": "to",
          "type": "address"
        },
        {
          "internalType": "uint256",
          "name": "tokenId",
          "type": "uint256"
        }
      ],
      "name": "transferFrom",
      "outputs": [],
      "stateMutability": "nonpayable",
      "type": "function"
    },
    {
      "inputs": [
        {
          "internalType": "address",
          "name": "newOwner",
          "type": "address"
        }
      ],
      "name": "transferOwnership",
      "outputs": [],
      "stateMutability": "nonpayable",
      "type": "function"
    },
    {
      "inputs": [
        {
          "internalType": "string",
          "name": "_tokenURI",
          "type": "string"
        }
      ],
      "name": "mint",
      "outputs": [
        {
          "internalType": "uint256",
          "name": "",
          "type": "uint256"
        }
      ],
      "stateMutability": "nonpayable",
      "type": "function"
    },
    {
      "inputs": [
        {
          "internalType": "uint256",
          "name": "_tokenId",
          "type": "uint256"
        }
      ],
      "name": "buy",
      "outputs": [],
      "stateMutability": "payable",
      "type": "function",
      "payable": true
    },
    {
      "inputs": [
        {
          "internalType": "uint256",
          "name": "_tokenId",
          "type": "uint256"
        },
        {
          "internalType": "uint256",
          "name": "_price",
          "type": "uint256"
        }
      ],
      "name": "updatePrice",
      "outputs": [
        {
          "internalType": "bool",
          "name": "",
          "type": "bool"
        }
      ],
      "stateMutability": "nonpayable",
      "type": "function"
    },
    {
      "inputs": [
        {
          "internalType": "uint256",
          "name": "_tokenId",
          "type": "uint256"
        },
        {
          "internalType": "bool",
          "name": "_shouldBeListed",
          "type": "bool"
        }
      ],
      "name": "updateListingStatus",
      "outputs": [
        {
          "internalType": "bool",
          "name": "",
          "type": "bool"
        }
      ],
      "stateMutability": "nonpayable",
      "type": "function"
    }
  ],
  "bytecode": "0x60806040523480156200001157600080fd5b506040518060400160405280600b81526020017f536b79204e46546f6b656e0000000000000000000000000000000000000000008152506040518060400160405280600581526020017f534e465453000000000000000000000000000000000000000000000000000000815250620000966301ffc9a760e01b620001c960201b60201c565b8160069080519060200190620000ae929190620002da565b508060079080519060200190620000c7929190620002da565b50620000e06380ac58cd60e01b620001c960201b60201c565b620000f8635b5e139f60e01b620001c960201b60201c565b6200011063780e9d6360e01b620001c960201b60201c565b5050600062000124620002d260201b60201c565b905080600a60006101000a81548173ffffffffffffffffffffffffffffffffffffffff021916908373ffffffffffffffffffffffffffffffffffffffff1602179055508073ffffffffffffffffffffffffffffffffffffffff16600073ffffffffffffffffffffffffffffffffffffffff167f8be0079c531659141344cd1fd0a4f28419497f9722a3daafe3b4186f6b6457e060405160405180910390a35062000380565b63ffffffff60e01b817bffffffffffffffffffffffffffffffffffffffffffffffffffffffff1916141562000266576040517f08c379a000000000000000000000000000000000000000000000000000000000815260040180806020018281038252601c8152602001807f4552433136353a20696e76616c696420696e746572666163652069640000000081525060200191505060405180910390fd5b6001600080837bffffffffffffffffffffffffffffffffffffffffffffffffffffffff19167bffffffffffffffffffffffffffffffffffffffffffffffffffffffff1916815260200190815260200160002060006101000a81548160ff02191690831515021790555050565b600033905090565b828054600181600116156101000203166002900490600052602060002090601f016020900481019282601f106200031d57805160ff19168380011785556200034e565b828001600101855582156200034e579182015b828111156200034d57825182559160200191906001019062000330565b5b5090506200035d919062000361565b5090565b5b808211156200037c57600081600090555060010162000362565b5090565b613de380620003906000396000f3fe60806040526004361061019c5760003560e01c80636c0360eb116100ec578063a22cb4651161008a578063d85d3d2711610064578063d85d3d2714610b62578063d96a094a14610c3e578063e985e9c514610c6c578063f2fde38b14610cf35761019c565b8063a22cb4651461093f578063b88d4fde1461099c578063c87b56dd14610aae5761019c565b806382367b2d116100c657806382367b2d146107b65780638da5cb5b1461081157806395d89b411461085257806398214bcb146108e25761019c565b80636c0360eb146106aa57806370a082311461073a578063715018a61461079f5761019c565b806326a49e371161015957806342842e0e1161013357806342842e0e1461052a5780634f6ccce7146105a55780635a9d1ac3146105f45780636352211e146106455761019c565b806326a49e37146104075780632f745c591461045657806340c1a064146104c55761019c565b806301ffc9a7146101a157806306fdde0314610211578063081812fc146102a1578063095ea7b31461030657806318160ddd1461036157806323b872dd1461038c575b600080fd5b3480156101ad57600080fd5b506101f9600480360360208110156101c457600080fd5b8101908080357bffffffffffffffffffffffffffffffffffffffffffffffffffffffff19169060200190929190505050610d44565b60405180821515815260200191505060405180910390f35b34801561021d57600080fd5b50610226610dab565b6040518080602001828103825283818151815260200191508051906020019080838360005b8381101561026657808201518184015260208101905061024b565b50505050905090810190601f1680156102935780820380516001836020036101000a031916815260200191505b509250505060405180910390f35b3480156102ad57600080fd5b506102da600480360360208110156102c457600080fd5b8101908080359060200190929190505050610e4d565b604051808273ffffffffffffffffffffffffffffffffffffffff16815260200191505060405180910390f35b34801561031257600080fd5b5061035f6004803603604081101561032957600080fd5b81019080803573ffffffffffffffffffffffffffffffffffffffff16906020019092919080359060200190929190505050610ee8565b005b34801561036d57600080fd5b5061037661102c565b6040518082815260200191505060405180910390f35b34801561039857600080fd5b50610405600480360360608110156103af57600080fd5b81019080803573ffffffffffffffffffffffffffffffffffffffff169060200190929190803573ffffffffffffffffffffffffffffffffffffffff1690602001909291908035906020019092919050505061103d565b005b34801561041357600080fd5b506104406004803603602081101561042a57600080fd5b81019080803590602001909291905050506110b3565b6040518082815260200191505060405180910390f35b34801561046257600080fd5b506104af6004803603604081101561047957600080fd5b81019080803573ffffffffffffffffffffffffffffffffffffffff169060200190929190803590602001909291905050506110cb565b6040518082815260200191505060405180910390f35b3480156104d157600080fd5b506104fe600480360360208110156104e857600080fd5b8101908080359060200190929190505050611126565b604051808273ffffffffffffffffffffffffffffffffffffffff16815260200191505060405180910390f35b34801561053657600080fd5b506105a36004803603606081101561054d57600080fd5b81019080803573ffffffffffffffffffffffffffffffffffffffff169060200190929190803573ffffffffffffffffffffffffffffffffffffffff16906020019092919080359060200190929190505050611159565b005b3480156105b157600080fd5b506105de600480360360208110156105c857600080fd5b8101908080359060200190929190505050611179565b6040518082815260200191505060405180910390f35b34801561060057600080fd5b5061062d6004803603602081101561061757600080fd5b810190808035906020019092919050505061119c565b60405180821515815260200191505060405180910390f35b34801561065157600080fd5b5061067e6004803603602081101561066857600080fd5b81019080803590602001909291905050506111bc565b604051808273ffffffffffffffffffffffffffffffffffffffff16815260200191505060405180910390f35b3480156106b657600080fd5b506106bf6111f3565b6040518080602001828103825283818151815260200191508051906020019080838360005b838110156106ff5780820151818401526020810190506106e4565b50505050905090810190601f16801561072c5780820380516001836020036101000a031916815260200191505b509250505060405180910390f35b34801561074657600080fd5b506107896004803603602081101561075d57600080fd5b81019080803573ffffffffffffffffffffffffffffffffffffffff169060200190929190505050611295565b6040518082815260200191505060405180910390f35b3480156107ab57600080fd5b506107b461136a565b005b3480156107c257600080fd5b506107f9600480360360408110156107d957600080fd5b8101908080359060200190929190803590602001909291905050506114da565b60405180821515815260200191505060405180910390f35b34801561081d57600080fd5b5061082661161d565b604051808273ffffffffffffffffffffffffffffffffffffffff16815260200191505060405180910390f35b34801561085e57600080fd5b50610867611647565b6040518080602001828103825283818151815260200191508051906020019080838360005b838110156108a757808201518184015260208101905061088c565b50505050905090810190601f1680156108d45780820380516001836020036101000a031916815260200191505b509250505060405180910390f35b3480156108ee57600080fd5b506109276004803603604081101561090557600080fd5b81019080803590602001909291908035151590602001909291905050506116e9565b60405180821515815260200191505060405180910390f35b34801561094b57600080fd5b5061099a6004803603604081101561096257600080fd5b81019080803573ffffffffffffffffffffffffffffffffffffffff169060200190929190803515159060200190929190505050611821565b005b3480156109a857600080fd5b50610aac600480360360808110156109bf57600080fd5b81019080803573ffffffffffffffffffffffffffffffffffffffff169060200190929190803573ffffffffffffffffffffffffffffffffffffffff1690602001909291908035906020019092919080359060200190640100000000811115610a2657600080fd5b820183602082011115610a3857600080fd5b80359060200191846001830284011164010000000083111715610a5a57600080fd5b91908080601f016020809104026020016040519081016040528093929190818152602001838380828437600081840152601f19601f8201169050808301925050505050505091929192905050506119d7565b005b348015610aba57600080fd5b50610ae760048036036020811015610ad157600080fd5b8101908080359060200190929190505050611a4f565b6040518080602001828103825283818151815260200191508051906020019080838360005b83811015610b27578082015181840152602081019050610b0c565b50505050905090810190601f168015610b545780820380516001836020036101000a031916815260200191505b509250505060405180910390f35b348015610b6e57600080fd5b50610c2860048036036020811015610b8557600080fd5b8101908080359060200190640100000000811115610ba257600080fd5b820183602082011115610bb457600080fd5b80359060200191846001830284011164010000000083111715610bd657600080fd5b91908080601f016020809104026020016040519081016040528093929190818152602001838380828437600081840152601f19601f820116905080830192505050505050509192919290505050611d20565b6040518082815260200191505060405180910390f35b610c6a60048036036020811015610c5457600080fd5b8101908080359060200190929190505050611e12565b005b348015610c7857600080fd5b50610cdb60048036036040811015610c8f57600080fd5b81019080803573ffffffffffffffffffffffffffffffffffffffff169060200190929190803573ffffffffffffffffffffffffffffffffffffffff169060200190929190505050611f30565b60405180821515815260200191505060405180910390f35b348015610cff57600080fd5b50610d4260048036036020811015610d1657600080fd5b81019080803573ffffffffffffffffffffffffffffffffffffffff169060200190929190505050611fc4565b005b6000806000837bffffffffffffffffffffffffffffffffffffffffffffffffffffffff19167bffffffffffffffffffffffffffffffffffffffffffffffffffffffff1916815260200190815260200160002060009054906101000a900460ff169050919050565b606060068054600181600116156101000203166002900480601f016020809104026020016040519081016040528092919081815260200182805460018160011615610100020316600290048015610e435780601f10610e1857610100808354040283529160200191610e43565b820191906000526020600020905b815481529060010190602001808311610e2657829003601f168201915b5050505050905090565b6000610e58826121b9565b610ead576040517f08c379a000000000000000000000000000000000000000000000000000000000815260040180806020018281038252602c815260200180613c8b602c913960400191505060405180910390fd5b6004600083815260200190815260200160002060009054906101000a900473ffffffffffffffffffffffffffffffffffffffff169050919050565b6000610ef3826111bc565b90508073ffffffffffffffffffffffffffffffffffffffff168373ffffffffffffffffffffffffffffffffffffffff161415610f7a576040517f08c379a0000000000000000000000000000000000000000000000000000000008152600401808060200182810382526021815260200180613d3b6021913960400191505060405180910390fd5b8073ffffffffffffffffffffffffffffffffffffffff16610f996121d6565b73ffffffffffffffffffffffffffffffffffffffff161480610fc85750610fc781610fc26121d6565b611f30565b5b61101d576040517f08c379a0000000000000000000000000000000000000000000000000000000008152600401808060200182810382526038815260200180613bbd6038913960400191505060405180910390fd5b61102783836121de565b505050565b60006110386002612297565b905090565b61104e6110486121d6565b826122ac565b6110a3576040517f08c379a0000000000000000000000000000000000000000000000000000000008152600401808060200182810382526031815260200180613d5c6031913960400191505060405180910390fd5b6110ae8383836123a0565b505050565b600b6020528060005260406000206000915090505481565b600061111e82600160008673ffffffffffffffffffffffffffffffffffffffff1673ffffffffffffffffffffffffffffffffffffffff1681526020019081526020016000206125e390919063ffffffff16565b905092915050565b600d6020528060005260406000206000915054906101000a900473ffffffffffffffffffffffffffffffffffffffff1681565b611174838383604051806020016040528060008152506119d7565b505050565b6000806111908360026125fd90919063ffffffff16565b50905080915050919050565b600c6020528060005260406000206000915054906101000a900460ff1681565b60006111ec82604051806060016040528060298152602001613c1f6029913960026126299092919063ffffffff16565b9050919050565b606060098054600181600116156101000203166002900480601f01602080910402602001604051908101604052809291908181526020018280546001816001161561010002031660029004801561128b5780601f106112605761010080835404028352916020019161128b565b820191906000526020600020905b81548152906001019060200180831161126e57829003601f168201915b5050505050905090565b60008073ffffffffffffffffffffffffffffffffffffffff168273ffffffffffffffffffffffffffffffffffffffff16141561131c576040517f08c379a000000000000000000000000000000000000000000000000000000000815260040180806020018281038252602a815260200180613bf5602a913960400191505060405180910390fd5b611363600160008473ffffffffffffffffffffffffffffffffffffffff1673ffffffffffffffffffffffffffffffffffffffff168152602001908152602001600020612648565b9050919050565b6113726121d6565b73ffffffffffffffffffffffffffffffffffffffff1661139061161d565b73ffffffffffffffffffffffffffffffffffffffff1614611419576040517f08c379a00000000000000000000000000000000000000000000000000000000081526004018080602001828103825260208152602001807f4f776e61626c653a2063616c6c6572206973206e6f7420746865206f776e657281525060200191505060405180910390fd5b600073ffffffffffffffffffffffffffffffffffffffff16600a60009054906101000a900473ffffffffffffffffffffffffffffffffffffffff1673ffffffffffffffffffffffffffffffffffffffff167f8be0079c531659141344cd1fd0a4f28419497f9722a3daafe3b4186f6b6457e060405160405180910390a36000600a60006101000a81548173ffffffffffffffffffffffffffffffffffffffff021916908373ffffffffffffffffffffffffffffffffffffffff160217905550565b600080600b60008581526020019081526020016000205490506114fc846111bc565b73ffffffffffffffffffffffffffffffffffffffff163373ffffffffffffffffffffffffffffffffffffffff161461159c576040517f08c379a000000000000000000000000000000000000000000000000000000000815260040180806020018281038252601c8152602001807f4572726f722c20796f7520617265206e6f7420746865206f776e65720000000081525060200191505060405180910390fd5b82600b6000868152602001908152602001600020819055503373ffffffffffffffffffffffffffffffffffffffff167f8647dab5101cbe18afb171756e9753802f9d66725bf2346b079b8b1a275e011682858760405180848152602001838152602001828152602001935050505060405180910390a2600191505092915050565b6000600a60009054906101000a900473ffffffffffffffffffffffffffffffffffffffff16905090565b606060078054600181600116156101000203166002900480601f0160208091040260200160405190810160405280929190818152602001828054600181600116156101000203166002900480156116df5780601f106116b4576101008083540402835291602001916116df565b820191906000526020600020905b8154815290600101906020018083116116c257829003601f168201915b5050505050905090565b60006116f4836111bc565b73ffffffffffffffffffffffffffffffffffffffff163373ffffffffffffffffffffffffffffffffffffffff1614611794576040517f08c379a000000000000000000000000000000000000000000000000000000000815260040180806020018281038252601c8152602001807f4572726f722c20796f7520617265206e6f7420746865206f776e65720000000081525060200191505060405180910390fd5b81600c600085815260200190815260200160002060006101000a81548160ff0219169083151502179055503373ffffffffffffffffffffffffffffffffffffffff167f3fd63d9ca8dc693a1b9911e664951294721009a4f6239c862d6719a160a1edfc84846040518083815260200182151581526020019250505060405180910390a26001905092915050565b6118296121d6565b73ffffffffffffffffffffffffffffffffffffffff168273ffffffffffffffffffffffffffffffffffffffff1614156118ca576040517f08c379a00000000000000000000000000000000000000000000000000000000081526004018080602001828103825260198152602001807f4552433732313a20617070726f766520746f2063616c6c65720000000000000081525060200191505060405180910390fd5b80600560006118d76121d6565b73ffffffffffffffffffffffffffffffffffffffff1673ffffffffffffffffffffffffffffffffffffffff16815260200190815260200160002060008473ffffffffffffffffffffffffffffffffffffffff1673ffffffffffffffffffffffffffffffffffffffff16815260200190815260200160002060006101000a81548160ff0219169083151502179055508173ffffffffffffffffffffffffffffffffffffffff166119846121d6565b73ffffffffffffffffffffffffffffffffffffffff167f17307eab39ab6107e8899845ad3d59bd9653f200f220920489ca2b5937696c318360405180821515815260200191505060405180910390a35050565b6119e86119e26121d6565b836122ac565b611a3d576040517f08c379a0000000000000000000000000000000000000000000000000000000008152600401808060200182810382526031815260200180613d5c6031913960400191505060405180910390fd5b611a498484848461265d565b50505050565b6060611a5a826121b9565b611aaf576040517f08c379a000000000000000000000000000000000000000000000000000000000815260040180806020018281038252602f815260200180613d0c602f913960400191505060405180910390fd5b6060600860008481526020019081526020016000208054600181600116156101000203166002900480601f016020809104026020016040519081016040528092919081815260200182805460018160011615610100020316600290048015611b585780601f10611b2d57610100808354040283529160200191611b58565b820191906000526020600020905b815481529060010190602001808311611b3b57829003601f168201915b505050505090506060611b696111f3565b9050600081511415611b7f578192505050611d1b565b600082511115611c505780826040516020018083805190602001908083835b60208310611bc15780518252602082019150602081019050602083039250611b9e565b6001836020036101000a03801982511681845116808217855250505050505090500182805190602001908083835b60208310611c125780518252602082019150602081019050602083039250611bef565b6001836020036101000a0380198251168184511680821785525050505050509050019250505060405160208183030381529060405292505050611d1b565b80611c5a856126cf565b6040516020018083805190602001908083835b60208310611c905780518252602082019150602081019050602083039250611c6d565b6001836020036101000a03801982511681845116808217855250505050505090500182805190602001908083835b60208310611ce15780518252602082019150602081019050602083039250611cbe565b6001836020036101000a03801982511681845116808217855250505050505090500192505050604051602081830303815290604052925050505b919050565b6000806001611d2d61102c565b019050611d3a3382612816565b611d448184612a0a565b611d4e8133612a94565b3373ffffffffffffffffffffffffffffffffffffffff167fe7cd4ce7f2a465edc730269a1305e8a48bad821e8fb7e152ec413829c01a53c482856040518083815260200180602001828103825283818151815260200191508051906020019080838360005b83811015611dce578082015181840152602081019050611db3565b50505050905090810190601f168015611dfb5780820380516001836020036101000a031916815260200191505b50935050505060405180910390a280915050919050565b611e1b81612afc565b6000611e26826111bc565b90506000339050611e3683612d29565b8073ffffffffffffffffffffffffffffffffffffffff168273ffffffffffffffffffffffffffffffffffffffff167ff3f85e76826d33e6fa293a653f3aff1cb5727a345bcaa3fc1f03dd969aea206c600b60008781526020019081526020016000205486611ea388611a4f565b6040518084815260200183815260200180602001828103825283818151815260200191508051906020019080838360005b83811015611eef578082015181840152602081019050611ed4565b50505050905090810190601f168015611f1c5780820380516001836020036101000a031916815260200191505b5094505050505060405180910390a3505050565b6000600560008473ffffffffffffffffffffffffffffffffffffffff1673ffffffffffffffffffffffffffffffffffffffff16815260200190815260200160002060008373ffffffffffffffffffffffffffffffffffffffff1673ffffffffffffffffffffffffffffffffffffffff16815260200190815260200160002060009054906101000a900460ff16905092915050565b611fcc6121d6565b73ffffffffffffffffffffffffffffffffffffffff16611fea61161d565b73ffffffffffffffffffffffffffffffffffffffff1614612073576040517f08c379a00000000000000000000000000000000000000000000000000000000081526004018080602001828103825260208152602001807f4f776e61626c653a2063616c6c6572206973206e6f7420746865206f776e657281525060200191505060405180910390fd5b600073ffffffffffffffffffffffffffffffffffffffff168173ffffffffffffffffffffffffffffffffffffffff1614156120f9576040517f08c379a0000000000000000000000000000000000000000000000000000000008152600401808060200182810382526026815260200180613b216026913960400191505060405180910390fd5b8073ffffffffffffffffffffffffffffffffffffffff16600a60009054906101000a900473ffffffffffffffffffffffffffffffffffffffff1673ffffffffffffffffffffffffffffffffffffffff167f8be0079c531659141344cd1fd0a4f28419497f9722a3daafe3b4186f6b6457e060405160405180910390a380600a60006101000a81548173ffffffffffffffffffffffffffffffffffffffff021916908373ffffffffffffffffffffffffffffffffffffffff16021790555050565b60006121cf826002612f3190919063ffffffff16565b9050919050565b600033905090565b816004600083815260200190815260200160002060006101000a81548173ffffffffffffffffffffffffffffffffffffffff021916908373ffffffffffffffffffffffffffffffffffffffff160217905550808273ffffffffffffffffffffffffffffffffffffffff16612251836111bc565b73ffffffffffffffffffffffffffffffffffffffff167f8c5be1e5ebec7d5bd14f71427d1e84f3dd0314c0f7b2291e5b200ac8c7c3b92560405160405180910390a45050565b60006122a582600001612f4b565b9050919050565b60006122b7826121b9565b61230c576040517f08c379a000000000000000000000000000000000000000000000000000000000815260040180806020018281038252602c815260200180613b91602c913960400191505060405180910390fd5b6000612317836111bc565b90508073ffffffffffffffffffffffffffffffffffffffff168473ffffffffffffffffffffffffffffffffffffffff16148061238657508373ffffffffffffffffffffffffffffffffffffffff1661236e84610e4d565b73ffffffffffffffffffffffffffffffffffffffff16145b8061239757506123968185611f30565b5b91505092915050565b8273ffffffffffffffffffffffffffffffffffffffff166123c0826111bc565b73ffffffffffffffffffffffffffffffffffffffff161461242c576040517f08c379a0000000000000000000000000000000000000000000000000000000008152600401808060200182810382526029815260200180613ce36029913960400191505060405180910390fd5b600073ffffffffffffffffffffffffffffffffffffffff168273ffffffffffffffffffffffffffffffffffffffff1614156124b2576040517f08c379a0000000000000000000000000000000000000000000000000000000008152600401808060200182810382526024815260200180613b476024913960400191505060405180910390fd5b6124bd838383612f5c565b6124c86000826121de565b61251981600160008673ffffffffffffffffffffffffffffffffffffffff1673ffffffffffffffffffffffffffffffffffffffff168152602001908152602001600020612f6190919063ffffffff16565b5061256b81600160008573ffffffffffffffffffffffffffffffffffffffff1673ffffffffffffffffffffffffffffffffffffffff168152602001908152602001600020612f7b90919063ffffffff16565b5061258281836002612f959092919063ffffffff16565b50808273ffffffffffffffffffffffffffffffffffffffff168473ffffffffffffffffffffffffffffffffffffffff167fddf252ad1be2c89b69c2b068fc378daa952ba7f163c4a11628f55a4df523b3ef60405160405180910390a4505050565b60006125f28360000183612fca565b60001c905092915050565b600080600080612610866000018661304d565b915091508160001c8160001c9350935050509250929050565b600061263c846000018460001b846130e6565b60001c90509392505050565b6000612656826000016131dc565b9050919050565b6126688484846123a0565b612674848484846131ed565b6126c9576040517f08c379a0000000000000000000000000000000000000000000000000000000008152600401808060200182810382526032815260200180613aef6032913960400191505060405180910390fd5b50505050565b60606000821415612717576040518060400160405280600181526020017f30000000000000000000000000000000000000000000000000000000000000008152509050612811565b600082905060005b60008214612741578080600101915050600a828161273957fe5b04915061271f565b60608167ffffffffffffffff8111801561275a57600080fd5b506040519080825280601f01601f19166020018201604052801561278d5781602001600182028036833780820191505090505b50905060006001830390508593505b6000841461280957600a84816127ae57fe5b0660300160f81b828280600190039350815181106127c857fe5b60200101907effffffffffffffffffffffffffffffffffffffffffffffffffffffffffffff1916908160001a905350600a848161280157fe5b04935061279c565b819450505050505b919050565b600073ffffffffffffffffffffffffffffffffffffffff168273ffffffffffffffffffffffffffffffffffffffff1614156128b9576040517f08c379a00000000000000000000000000000000000000000000000000000000081526004018080602001828103825260208152602001807f4552433732313a206d696e7420746f20746865207a65726f206164647265737381525060200191505060405180910390fd5b6128c2816121b9565b15612935576040517f08c379a000000000000000000000000000000000000000000000000000000000815260040180806020018281038252601c8152602001807f4552433732313a20746f6b656e20616c7265616479206d696e7465640000000081525060200191505060405180910390fd5b61294160008383612f5c565b61299281600160008573ffffffffffffffffffffffffffffffffffffffff1673ffffffffffffffffffffffffffffffffffffffff168152602001908152602001600020612f7b90919063ffffffff16565b506129a981836002612f959092919063ffffffff16565b50808273ffffffffffffffffffffffffffffffffffffffff16600073ffffffffffffffffffffffffffffffffffffffff167fddf252ad1be2c89b69c2b068fc378daa952ba7f163c4a11628f55a4df523b3ef60405160405180910390a45050565b612a13826121b9565b612a68576040517f08c379a000000000000000000000000000000000000000000000000000000000815260040180806020018281038252602c815260200180613cb7602c913960400191505060405180910390fd5b80600860008481526020019081526020016000209080519060200190612a8f929190613a2f565b505050565b612a9d826121b9565b612aa657600080fd5b80600d600084815260200190815260200160002060006101000a81548173ffffffffffffffffffffffffffffffffffffffff021916908373ffffffffffffffffffffffffffffffffffffffff1602179055505050565b6000600c600083815260200190815260200160002060009054906101000a900460ff169050612b2a826121b9565b612b9c576040517f08c379a00000000000000000000000000000000000000000000000000000000081526004018080602001828103825260178152602001807f4572726f722c20746f6b656e206e6f742065786973747300000000000000000081525060200191505060405180910390fd5b80612c0f576040517f08c379a00000000000000000000000000000000000000000000000000000000081526004018080602001828103825260178152602001807f4572726f722c20746f6b656e206e6f74206c697374656400000000000000000081525060200191505060405180910390fd5b600b600083815260200190815260200160002054341015612c98576040517f08c379a00000000000000000000000000000000000000000000000000000000081526004018080602001828103825260188152602001807f4572726f722c207072696365206e6f74206d617463686564000000000000000081525060200191505060405180910390fd5b612ca1826111bc565b73ffffffffffffffffffffffffffffffffffffffff163373ffffffffffffffffffffffffffffffffffffffff161415612d25576040517f08c379a0000000000000000000000000000000000000000000000000000000008152600401808060200182810382526021815260200180613d8d6021913960400191505060405180910390fd5b5050565b60003390506000612d39836111bc565b90506000600d600085815260200190815260200160002060009054906101000a900473ffffffffffffffffffffffffffffffffffffffff1690506000612d7d61161d565b9050612d8a8385876123a0565b6000600b60008781526020019081526020016000205490506000612daf826028613406565b90506000612dc8612dc184600361348f565b6028613406565b90506000818385030390508673ffffffffffffffffffffffffffffffffffffffff166108fc829081150290604051600060405180830381858888f19350505050158015612e19573d6000803e3d6000fd5b508473ffffffffffffffffffffffffffffffffffffffff166108fc849081150290604051600060405180830381858888f19350505050158015612e60573d6000803e3d6000fd5b508573ffffffffffffffffffffffffffffffffffffffff166108fc839081150290604051600060405180830381858888f19350505050158015612ea7573d6000803e3d6000fd5b5083341115612efa578773ffffffffffffffffffffffffffffffffffffffff166108fc8534039081150290604051600060405180830381858888f19350505050158015612ef8573d6000803e3d6000fd5b505b6000600c60008b815260200190815260200160002060006101000a81548160ff021916908315150217905550505050505050505050565b6000612f43836000018360001b613515565b905092915050565b600081600001805490509050919050565b505050565b6000612f73836000018360001b613538565b905092915050565b6000612f8d836000018360001b613620565b905092915050565b6000612fc1846000018460001b8473ffffffffffffffffffffffffffffffffffffffff1660001b613690565b90509392505050565b60008183600001805490501161302b576040517f08c379a0000000000000000000000000000000000000000000000000000000008152600401808060200182810382526022815260200180613acd6022913960400191505060405180910390fd5b82600001828154811061303a57fe5b9060005260206000200154905092915050565b600080828460000180549050116130af576040517f08c379a0000000000000000000000000000000000000000000000000000000008152600401808060200182810382526022815260200180613c486022913960400191505060405180910390fd5b60008460000184815481106130c057fe5b906000526020600020906002020190508060000154816001015492509250509250929050565b600080846001016000858152602001908152602001600020549050600081141583906131ad576040517f08c379a00000000000000000000000000000000000000000000000000000000081526004018080602001828103825283818151815260200191508051906020019080838360005b83811015613172578082015181840152602081019050613157565b50505050905090810190601f16801561319f5780820380516001836020036101000a031916815260200191505b509250505060405180910390fd5b508460000160018203815481106131c057fe5b9060005260206000209060020201600101549150509392505050565b600081600001805490509050919050565b600061320e8473ffffffffffffffffffffffffffffffffffffffff1661376c565b61321b57600190506133fe565b606061338563150b7a0260e01b6132306121d6565b888787604051602401808573ffffffffffffffffffffffffffffffffffffffff1681526020018473ffffffffffffffffffffffffffffffffffffffff16815260200183815260200180602001828103825283818151815260200191508051906020019080838360005b838110156132b4578082015181840152602081019050613299565b50505050905090810190601f1680156132e15780820380516001836020036101000a031916815260200191505b5095505050505050604051602081830303815290604052907bffffffffffffffffffffffffffffffffffffffffffffffffffffffff19166020820180517bffffffffffffffffffffffffffffffffffffffffffffffffffffffff8381831617835250505050604051806060016040528060328152602001613aef603291398773ffffffffffffffffffffffffffffffffffffffff1661377f9092919063ffffffff16565b9050600081806020019051602081101561339e57600080fd5b8101908080519060200190929190505050905063150b7a0260e01b7bffffffffffffffffffffffffffffffffffffffffffffffffffffffff1916817bffffffffffffffffffffffffffffffffffffffffffffffffffffffff191614925050505b949350505050565b600080821161347d576040517f08c379a000000000000000000000000000000000000000000000000000000000815260040180806020018281038252601a8152602001807f536166654d6174683a206469766973696f6e206279207a65726f00000000000081525060200191505060405180910390fd5b81838161348657fe5b04905092915050565b6000808314156134a2576000905061350f565b60008284029050828482816134b357fe5b041461350a576040517f08c379a0000000000000000000000000000000000000000000000000000000008152600401808060200182810382526021815260200180613c6a6021913960400191505060405180910390fd5b809150505b92915050565b600080836001016000848152602001908152602001600020541415905092915050565b60008083600101600084815260200190815260200160002054905060008114613614576000600182039050600060018660000180549050039050600086600001828154811061358357fe5b90600052602060002001549050808760000184815481106135a057fe5b90600052602060002001819055506001830187600101600083815260200190815260200160002081905550866000018054806135d857fe5b6001900381819060005260206000200160009055905586600101600087815260200190815260200160002060009055600194505050505061361a565b60009150505b92915050565b600061362c8383613797565b61368557826000018290806001815401808255809150506001900390600052602060002001600090919091909150558260000180549050836001016000848152602001908152602001600020819055506001905061368a565b600090505b92915050565b600080846001016000858152602001908152602001600020549050600081141561373757846000016040518060400160405280868152602001858152509080600181540180825580915050600190039060005260206000209060020201600090919091909150600082015181600001556020820151816001015550508460000180549050856001016000868152602001908152602001600020819055506001915050613765565b8285600001600183038154811061374a57fe5b90600052602060002090600202016001018190555060009150505b9392505050565b600080823b905060008111915050919050565b606061378e84846000856137ba565b90509392505050565b600080836001016000848152602001908152602001600020541415905092915050565b606082471015613815576040517f08c379a0000000000000000000000000000000000000000000000000000000008152600401808060200182810382526026815260200180613b6b6026913960400191505060405180910390fd5b61381e8561376c565b613890576040517f08c379a000000000000000000000000000000000000000000000000000000000815260040180806020018281038252601d8152602001807f416464726573733a2063616c6c20746f206e6f6e2d636f6e747261637400000081525060200191505060405180910390fd5b600060608673ffffffffffffffffffffffffffffffffffffffff1685876040518082805190602001908083835b602083106138e057805182526020820191506020810190506020830392506138bd565b6001836020036101000a03801982511681845116808217855250505050505090500191505060006040518083038185875af1925050503d8060008114613942576040519150601f19603f3d011682016040523d82523d6000602084013e613947565b606091505b5091509150613957828286613963565b92505050949350505050565b6060831561397357829050613a28565b6000835111156139865782518084602001fd5b816040517f08c379a00000000000000000000000000000000000000000000000000000000081526004018080602001828103825283818151815260200191508051906020019080838360005b838110156139ed5780820151818401526020810190506139d2565b50505050905090810190601f168015613a1a5780820380516001836020036101000a031916815260200191505b509250505060405180910390fd5b9392505050565b828054600181600116156101000203166002900490600052602060002090601f016020900481019282601f10613a7057805160ff1916838001178555613a9e565b82800160010185558215613a9e579182015b82811115613a9d578251825591602001919060010190613a82565b5b509050613aab9190613aaf565b5090565b5b80821115613ac8576000816000905550600101613ab0565b509056fe456e756d657261626c655365743a20696e646578206f7574206f6620626f756e64734552433732313a207472616e7366657220746f206e6f6e20455243373231526563656976657220696d706c656d656e7465724f776e61626c653a206e6577206f776e657220697320746865207a65726f20616464726573734552433732313a207472616e7366657220746f20746865207a65726f2061646472657373416464726573733a20696e73756666696369656e742062616c616e636520666f722063616c6c4552433732313a206f70657261746f7220717565727920666f72206e6f6e6578697374656e7420746f6b656e4552433732313a20617070726f76652063616c6c6572206973206e6f74206f776e6572206e6f7220617070726f76656420666f7220616c6c4552433732313a2062616c616e636520717565727920666f7220746865207a65726f20616464726573734552433732313a206f776e657220717565727920666f72206e6f6e6578697374656e7420746f6b656e456e756d657261626c654d61703a20696e646578206f7574206f6620626f756e6473536166654d6174683a206d756c7469706c69636174696f6e206f766572666c6f774552433732313a20617070726f76656420717565727920666f72206e6f6e6578697374656e7420746f6b656e4552433732314d657461646174613a2055524920736574206f66206e6f6e6578697374656e7420746f6b656e4552433732313a207472616e73666572206f6620746f6b656e2074686174206973206e6f74206f776e4552433732314d657461646174613a2055524920717565727920666f72206e6f6e6578697374656e7420746f6b656e4552433732313a20617070726f76616c20746f2063757272656e74206f776e65724552433732313a207472616e736665722063616c6c6572206973206e6f74206f776e6572206e6f7220617070726f7665644572726f722c20796f7520616c7265616479206f776e207468697320746f6b656ea264697066735822122080d6d17013bf4b94cf4fbfcbd948bd869cf65068a15d7f1731a52d282676f67e64736f6c634300060c0033",
  "immutableReferences": {},
  "source": "// SPDX-License-Identifier: MIT\n\npragma solidity >=0.6.0 <0.8.0;\n\n\nimport 'openzeppelin-solidity/contracts/access/Ownable.sol';\nimport 'openzeppelin-solidity/contracts/token/ERC721/ERC721.sol';\nimport 'openzeppelin-solidity/contracts/math/SafeMath.sol';\n\ncontract SkyNFTS is ERC721, Ownable {\n    mapping (uint => uint) public price;\n    mapping (uint => bool) public listedTokens;\n    mapping (uint => address) public tokenCreator;\n\n    event Minted(address indexed owner, uint256 tokenId, string tokenURI);\n    event Purchased(address indexed previousOwner, address indexed newOwner, uint price, uint tokenId, string uri);\n    event PriceUpdate(address indexed owner, uint oldPrice, uint newPrice, uint tokenId);\n    event NftListStatus(address indexed owner, uint tokenId, bool isListed);\n\n    constructor() ERC721(\"Sky NFToken\", \"SNFTS\") public {\n\n    }\n\n    /**\n    * @dev Internal function to set the token URI for a given token\n    * Reverts if the token ID does not exist\n    * @param _tokenId uint256 ID of the token to set its URI\n    * @param _creator original token creator\n    */\n    function _setTokenCreator(uint256 _tokenId, address _creator) internal {\n        require(_exists(_tokenId));\n        tokenCreator[_tokenId] = _creator;\n    }\n\n    /**\n     * @dev Public function to mint new token, assigns uri to token, sets sender as creator\n     */\n    function mint(string memory _tokenURI) public returns (uint) {\n        uint _tokenId = totalSupply() + 1;\n\n        _mint(msg.sender, _tokenId);\n        _setTokenURI(_tokenId, _tokenURI);\n        _setTokenCreator(_tokenId, msg.sender);\n\n\n        emit Minted(msg.sender, _tokenId, _tokenURI);\n\n        return _tokenId;\n    }\n\n\n\n    function buy(uint _tokenId) external payable {\n        _validate(_tokenId);\n\n        address _currentOwner = ownerOf(_tokenId);\n        address _newOwner = msg.sender;\n\n        _trade(_tokenId);\n\n        emit Purchased(_currentOwner, _newOwner, price[_tokenId], _tokenId, tokenURI(_tokenId));\n    }\n\n    function _validate(uint _tokenId) internal {\n        bool isItemListed = listedTokens[_tokenId];\n        require(_exists(_tokenId), \"Error, token not exists\");\n        require(isItemListed, \"Error, token not listed\");\n        require(msg.value >= price[_tokenId], \"Error, price not matched\");\n        require(msg.sender != ownerOf(_tokenId), \"Error, you already own this token\");\n    }\n\n    function _trade(uint _tokenId) internal {\n        address payable _buyer = payable(msg.sender);\n        address payable _tokenOwner = payable(ownerOf(_tokenId));\n        address payable _creator = payable(tokenCreator[_tokenId]);\n        address payable _contractOwner = payable(owner());\n\n        _transfer(_tokenOwner, _buyer, _tokenId);\n\n        // 10% commission, 2,5% for market, 7,5% for creator\n        uint _price = price[_tokenId];\n\n        uint _marketCommision = SafeMath.div(_price, 40);\n        uint _creatorCommision =  SafeMath.div(SafeMath.mul(_price, 3), 40);\n        uint _sellerValue = _price - _marketCommision - _creatorCommision;\n\n        _tokenOwner.transfer(_sellerValue);\n        _contractOwner.transfer(_marketCommision);\n        _creator.transfer(_creatorCommision);\n\n        // If buyer sent more than price, we send them back their rest of funds\n        if (msg.value > _price) {\n            _buyer.transfer(msg.value - _price);\n        }\n\n        listedTokens[_tokenId] = false;\n    }\n\n    function updatePrice(uint _tokenId, uint _price) public returns (bool) {\n        uint oldPrice = price[_tokenId];\n        require(msg.sender == ownerOf(_tokenId), \"Error, you are not the owner\");\n        price[_tokenId] = _price;\n\n        emit PriceUpdate(msg.sender, oldPrice, _price, _tokenId);\n        return true;\n    }\n\n    function updateListingStatus(uint _tokenId, bool _shouldBeListed) public returns (bool) {\n        require(msg.sender == ownerOf(_tokenId), \"Error, you are not the owner\");\n\n        listedTokens[_tokenId] = _shouldBeListed;\n\n        emit NftListStatus(msg.sender, _tokenId, _shouldBeListed);\n\n        return true;\n    }\n}",
  "sourcePath": "/home/adam/repos/skynfts_contract/contracts/SkyNFTS.sol",
  "compiler": {
    "name": "solc",
    "version": "0.6.12+commit.27d51765.Emscripten.clang"
  },
  "schemaVersion": "3.4.1",
  "updatedAt": "2021-05-08T18:04:04.078Z",
  "networkType": "ethereum",
  "devdoc": {
    "kind": "dev",
    "methods": {
      "approve(address,uint256)": {
        "details": "See {IERC721-approve}."
      },
      "balanceOf(address)": {
        "details": "See {IERC721-balanceOf}."
      },
      "baseURI()": {
        "details": "Returns the base URI set via {_setBaseURI}. This will be automatically added as a prefix in {tokenURI} to each token's URI, or to the token ID if no specific URI is set for that token ID."
      },
      "getApproved(uint256)": {
        "details": "See {IERC721-getApproved}."
      },
      "isApprovedForAll(address,address)": {
        "details": "See {IERC721-isApprovedForAll}."
      },
      "mint(string)": {
        "details": "Public function to mint new token, assigns uri to token, sets sender as creator"
      },
      "name()": {
        "details": "See {IERC721Metadata-name}."
      },
      "owner()": {
        "details": "Returns the address of the current owner."
      },
      "ownerOf(uint256)": {
        "details": "See {IERC721-ownerOf}."
      },
      "renounceOwnership()": {
        "details": "Leaves the contract without owner. It will not be possible to call `onlyOwner` functions anymore. Can only be called by the current owner. NOTE: Renouncing ownership will leave the contract without an owner, thereby removing any functionality that is only available to the owner."
      },
      "safeTransferFrom(address,address,uint256)": {
        "details": "See {IERC721-safeTransferFrom}."
      },
      "safeTransferFrom(address,address,uint256,bytes)": {
        "details": "See {IERC721-safeTransferFrom}."
      },
      "setApprovalForAll(address,bool)": {
        "details": "See {IERC721-setApprovalForAll}."
      },
      "supportsInterface(bytes4)": {
        "details": "See {IERC165-supportsInterface}. Time complexity O(1), guaranteed to always use less than 30 000 gas."
      },
      "symbol()": {
        "details": "See {IERC721Metadata-symbol}."
      },
      "tokenByIndex(uint256)": {
        "details": "See {IERC721Enumerable-tokenByIndex}."
      },
      "tokenOfOwnerByIndex(address,uint256)": {
        "details": "See {IERC721Enumerable-tokenOfOwnerByIndex}."
      },
      "tokenURI(uint256)": {
        "details": "See {IERC721Metadata-tokenURI}."
      },
      "totalSupply()": {
        "details": "See {IERC721Enumerable-totalSupply}."
      },
      "transferFrom(address,address,uint256)": {
        "details": "See {IERC721-transferFrom}."
      },
      "transferOwnership(address)": {
        "details": "Transfers ownership of the contract to a new account (`newOwner`). Can only be called by the current owner."
      }
    },
    "version": 1
  },
  "userdoc": {
    "kind": "user",
    "methods": {},
    "version": 1
  }
}